:020000040800F2
:1000000078070020911C0008D1410008D341000866
:10001000D7410008DB410008DF4100080000000074
:10002000000000000000000000000000E3410008A4
:10003000E541000800000000E7410008E941000830
:10004000AB1C0008AB1C0008AB1C0008674500088F
:10005000AB1C0008AB1C0008AB1C0008AB1C000864
:10006000AB1C0008AB1C0008AB1C0008AB1C000854
:10007000AB1C0008AB1C0008AB1C0008AB1C000844
:10008000AB1C0008AB1C0008AB1C0008AB1C000834
:10009000AB1C0008AB1C0008AB1C0008AB1C000824
:1000A000AB1C0008AB1C0008AB1C0008AB1C000814
:1000B000AB1C0008AB1C0008AB1C0008AB1C000804
:1000C000AB1C0008AB1C0008AB1C0008AB1C0008F4
:1000D000AB1C000845440008AB1C0008AB1C000822
:1000E000AB1C00087B450008AB1C000800F002F8C0
:1000F00000F090F80AA090E8000C82448344AAF132
:100100000107DA4501D100F085F8AFF2090EBAE82F
:100110000F0013F0010F18BFFB1A43F0010318473B
:100120002068000040680000103A24BF78C878C1F9
:10013000FAD8520724BF30C830C144BF04680C60ED
:10014000704700000023002400250026103A28BF35
:1001500078C1FBD8520728BF30C148BF0B60704739
:100160006E2905F07D81702905F0EF82662906F081
:100170001F83652906F01C83672906F0198361290E
:10018000AFF3008003681B0A28BF41F08001692992
:1001900005F02A81642905F02781752905F024815D
:1001A0006F2905F07C82782905F0BB82E92905F0EA
:1001B0001782E42905F01482F52905F01182EF2950
:1001C00005F07982F82905F0BA820368DB0928BFB7
:1001D00041F08001632905F08681732905F08B8148
:1001E000E32905F07485F32905F07985002070472F
:1001F0001FB505F0C9FD04000020002106F0C2FA79
:10020000401C60600020002106F0A6FAE0601FBDDF
:1002100010B510BD05F08BFD1146FFF7E9FF01F0A9
:1002200057FD05F067FE03B4FFF7F2FF03BC04F0CF
:1002300085F800000CB50020019000906C48006823
:1002400040F480306A49086000BF6948006800F4E3
:10025000003000900198401C0190009818B9019856
:10026000B0F5A06FF1D16248006800F4003010B121
:100270000120009001E0002000900098012843D167
:100280005C48006840F010005A4908600846006861
:1002900020F0030008600846006840F00200086093
:1002A00053484068524948600846406848600846DC
:1002B000406840F4806048600846406820F47C1044
:1002C00048600846406840F4E81048600846006806
:1002D00040F08070086000BF4548006800F0007082
:1002E0000028F9D04248406820F0030040494860A7
:1002F0000846406840F00200486000BF3C48406843
:1003000000F00C000828F9D10CBD10B5FFF792FFE2
:1003100010BD10B53648006840F00100344908604F
:10032000084640683449084031494860084600683A
:10033000324908402E4908600846006820F48020B1
:1003400008600846406820F4FE0048604FF41F0033
:100350008860FFF7DAFF4FF000602949086010BDA0
:1003600010B5002100200022214B5B6803F00C0136
:1003700021B1042906D0082928D107E0214B224CBD
:10038000236027E01F4B204C236023E0184B5B6861
:1003900003F47010164B5B6803F48032022303EB06
:1003A000904022B9194B4343174C23600DE0104B8A
:1003B0005B6803F4003323B1144B4343124C2360B6
:1003C00003E0104B4343104C236003E00D4B0E4CF5
:1003D000236000BF00BF064B5B68C3F303130C4CE4
:1003E000E15C094B1B68CB40074C236010BD00004B
:1003F00000100240002002400000FFF8FFFFF6FE60
:1004000008ED00E000127A000000002000093D0025
:100410000400002031490143314A1160704770B532
:10042000002100230F22C47804B32D4C246804F467
:10043000E064C4F5E064210AC1F10403CA404478D1
:1004400004FA03F18478144021430901254C06780D
:10045000A155047804F01F050124AC4005786D1106
:10046000AD0005F1E025C5F8004109E0047804F08D
:100470001F050124AC401C4D0678761145F8264036
:1004800070BD1A4A0A400243154B1B1F1A60704781
:1004900039B1134A121D12680243114B1B1D1A6019
:1004A00006E00F4A121D126882430D4B1B1D1A6095
:1004B0007047042808D14FF0E021096941F0040198
:1004C0004FF0E022116107E04FF0E021096921F0CF
:1004D00004014FF0E0221161704700000000FA05AE
:1004E0000CED00E000E400E080E100E080FFFF1F91
:1004F00010B50446CC48844208D10121042000F004
:100500002DFB0021042000F029FB46E0C74884426F
:1005100008D10121082000F021FB0021082000F073
:100520001DFB3AE0C248844208D10121102000F0AE
:1005300015FB0021102000F011FB2EE0BD48844285
:1005400008D10121202000F009FB0021202000F02B
:1005500005FB22E0B848844208D10121402000F088
:10056000FDFA0021402000F0F9FA16E0B348844279
:1005700008D10121802000F0F1FA0021802000F054
:10058000EDFA0AE0AE48844207D10121801500F05F
:10059000E5FA0021A01500F0E1FA10BD10B5012127
:1005A000084600F0DBFA0021012000F0D7FA10BD68
:1005B0002DE9F041024600250026002000230024FA
:1005C000002791F803C00CF00F0591F803C00CF060
:1005D000100CBCF1000F03D091F802C04CEA0505E5
:1005E00091F800C0BCF1000F31D0146800202BE05E
:1005F0004FF0010C0CFA00F3B1F800C00CEA03064E
:100600009E4220D183004FF00F0C0CFA03F7BC433D
:1006100005FA03FC4CEA040491F803C0BCF1280F6E
:1006200006D14FF0010C0CFA00FCC2F814C00AE02D
:1006300091F803C0BCF1480F05D14FF0010C0CFA42
:1006400000FCC2F810C0401C0828D1D31460B1F8D7
:1006500000C0BCF1FF0F34DD546800202EE000F133
:10066000080C4FF0010808FA0CF3B1F800C00CEACE
:1006700003069E4221D183004FF00F0C0CFA03F7C2
:10068000BC4305FA03FC4CEA040491F803C0BCF136
:10069000280F05D100F1080C08FA0CF8C2F81480F4
:1006A00091F803C0BCF1480F07D100F1080C4FF0DE
:1006B000010808FA0CF8C2F81080401C0828CED3B4
:1006C0005460BDE8F0814FF6FF7101800221817016
:1006D0000421C17070470246002093680B400BB1A3
:1006E000012000E0002070470146886880B2704712
:1006F00002460020D3680B400BB1012000E000202F
:1007000070470146C86880B2704701617047416117
:1007100070470AB1016100E041617047C1607047F4
:100720004FF480320A438261816182618269826909
:10073000704702460020434B18684FF680731840FC
:1007400040EA021008433F4B186070473E49C861B9
:100750007047F0B50A46002300240021002500F070
:100760000046B6F1004F02D1364EF16901E0354E38
:100770007168C0F3034583B200F44016B6F5401F1C
:1007800008D121F070612F4E766826F070662D4FEB
:100790007E6012E000F48016B6F5801F06D10326B5
:1007A00006FA05F4A14341F0706106E0460D3601FA
:1007B00003FA06F6B14341F0706122B1460D3601ED
:1007C00003FA06F6314300F00046B6F1004F02D1BD
:1007D0001C4EF16101E01B4E7160F0BD30B500228E
:1007E0008B071C0F0F2303FA04F2164B08338C10EF
:1007F00053F824309343134C08348D1044F82530BB
:1008000023468C1053F824308C07240F00FA04F48C
:1008100023430C4C08348D1044F8253030BD0A4970
:10082000DC3108607047000000080140000C014006
:10083000001001400014014000180140001C01405C
:10084000002001400000014000002042DF48006815
:1008500040F00100DD49086008464068DC49084076
:10086000DA49486008460068DA490840D749086014
:100870000846006820F4802008600846406820F49C
:10088000FE0048604FF41F0088607047CF49096838
:1008900021F48031CD4A11601146096821F480218C
:1008A0001160B0F5803F03D0B0F5802F0ED106E087
:1008B000C649096841F48031C44A116007E0C34960
:1008C000096841F4A021C14A116000E000BF00BFE7
:1008D000704710B501460022002300204A11012A6A
:1008E00002D1BA4C236806E0022A02D1B74C236A2F
:1008F00001E0B64C636A01F01F02012494401C40E1
:100900000CB1012000E0002010BD38B5002000909F
:100910000024002500BF3120FFF7DBFF05460098CB
:10092000401C00900098B0F5A06F01D0002DF2D0CF
:100930003120FFF7CEFF08B1012400E0002420465B
:1009400038BD01460020A14A106820F0F80040EAB6
:10095000C10010607047A04908607047024600203F
:100960009A4B586820F47C1042EA01031843974BD5
:100970005860704798490866704701460020934ABE
:10098000506820F003000843506070478F4840686B
:1009900000F00C007047014600208C4A506820F09F
:1009A000F00008435060704701460020874A5068B5
:1009B00020F4E06008435060704701460020834AFD
:1009C000506820F4605040EAC1005060704729B17F
:1009D0007E4A527A02437D4B5A7204E07B4A527A35
:1009E00082437A4B5A7270477B49D831086070470E
:1009F00001460020754A506820F44040084350608A
:100A000070470021714A20321170704A82F820101C
:100A1000012802D004280AD104E001216B4A2032C7
:100A2000117005E00521694A2032117000E000BF15
:100A300000BF70476949086070476449096A01430B
:100A4000624A11627047654944390860704730B5A1
:100A500000210022002400235C4D6D6805F00C018C
:100A600021B1042905D0082923D105E05C4D05609A
:100A700022E05B4D05601FE0544D6D6805F4701277
:100A8000524D6D6805F48034022505EB92421CB985
:100A9000544D554305600BE04C4D6D6805F4003531
:100AA0001DB1504D5543056002E04D4D5543056065
:100AB00002E04B4D056000BF00BF444D6D6805F07E
:100AC000F0010909484D6B5C0568DD4045603F4D0C
:100AD0006D6805F4E061090A434D6B5C4568DD40D3
:100AE00085603A4D6D6805F46051C90A3E4D6B5CF6
:100AF0004568DD40C560354D6D6805F44041890BA2
:100B00003A4D6B5CC568B5FBF3F5056130BD29B1A5
:100B10002E4A526902432D4B5A6104E02B4A526916
:100B200082432A4B5A61704729B1284A926902438D
:100B3000264B9A6104E0254A92698243234B9A61CD
:100B4000704729B1214AD2690243204BDA6104E09F
:100B50001E4AD26982431D4BDA61704729B11B4A94
:100B6000D2680243194BDA6004E0184AD268824323
:100B7000164BDA60704729B1144A12690243134BCD
:100B80001A6104E0114A12698243104B1A617047DE
:100B900012494039086070470F49C86470470B49D3
:100BA000C87170470948406A40F080700749486240
:100BB000704701460020054A92680A400AB10120A8
:100BC00000E0002070470149887270470010024021
:100BD0000000FFF8FFFFF6FE0000424280044242A0
:100BE00000127A0000093D001400002024000020BB
:100BF00010B50446FB48844209D101218803FFF760
:100C0000ADFF00214FF48040FFF7A8FF32E0F64827
:100C1000844209D101214804FFF7ADFF00214FF4C0
:100C20000030FFF7A8FF25E0F048844209D10121F8
:100C30008804FFF7A0FF00214FF48020FFF79BFFFF
:100C400018E0EB48844209D10121C804FFF793FF63
:100C500000214FF40020FFF78EFF0BE0E5488442AF
:100C600008D101210805FFF786FF00214FF480100D
:100C7000FFF781FF10BD2DE9F04786B005460E460F
:100C80000024A24600BFA1460027B08900B100BFE2
:100C90002F462C8A4CF6FF700440F08804432C82C7
:100CA000AC894EF6F3100440B0883189084371894D
:100CB00008430443AC81AC8A4FF6FF400440B0893E
:100CC0000443AC8201A8FFF7C2FEC648874202D1A6
:100CD000DDF810A001E0DDF80CA0A88900F40040C8
:100CE00040B10AEBCA0000EB0A1031684900B0FBC2
:100CF000F1F807E00AEBCA0000EB0A10316889003E
:100D0000B0FBF1F86420B8FBF0F004012009642185
:100D100001FB1089A88900F4004040B1322000EBAB
:100D2000C900B0FBF1F000F00700044308E03220F6
:100D300000EB09106421B0FBF1F000F00F00044358
:100D40002C8106B0BDE8F0874FF4165101600021F8
:100D50008180C18001810C21418100218181704706
:100D600010B502460020108A4FF2FF0318400B888E
:100D70004C8823438C882343CC8823431843108218
:100D800010BD0021018041808180C180704721B168
:100D9000828942F40052828104E082894DF6FF7319
:100DA0001A4082817047F0B50346002400260025D2
:100DB000002040F66A17B94200D100BF1846C1F3BF
:100DC000421401F01F06012707FA06F5012C01D194
:100DD0000C3004E0022C01D1103000E014301AB1C4
:100DE00007682F43076002E00768AF430760F0BD64
:100DF0001AB1838A0B43838202E0838A8B43838206
:100E00007047028A4FF6F0731A400282028A0A4340
:100E10000282704782894FF2FF731A408281828971
:100E20000A438281704721B1828942F002028281A5
:100E300004E082894FF6FD731A4082817047028A6E
:100E40004FF6DF731A400282028A0A430282704719
:100E500021B1028A42F48042028204E0028A4BF607
:100E6000FF731A4002827047C1F308028280704704
:100E700001468888C0F308007047818941F001016C
:100E800081817047028BD2B20283028B42EA012237
:100E900002837047028B02F47F420283028B0A4373
:100EA0000283704721B1828A42F02002828204E0EC
:100EB000828A4FF6DF731A408282704721B1828A9C
:100EC00042F01002828204E0828A4FF6EF731A40E9
:100ED0008282704721B1828A42F00802828204E055
:100EE000828A4FF6F7731A408282704721B1828955
:100EF00042F40042828103E08289C2F30E028281C1
:100F0000704721B1828A42F40062828204E0828AC0
:100F10004FF2FF731A4082827047828A4FF6FB734A
:100F20001A408282828A0A438282704721B1828A71
:100F300042F00202828204E0828A4FF6FD731A4078
:100F40008282704702460020B1F5007F00D100BFC9
:100F500013880B400BB1012000E00020704701F422
:100F60000072B2F5007F00D100BFCA430280704713
:100F700070B50246002400230025002040F66A16C2
:100F8000B14200D100BFC1F3421501F01F03012699
:100F900006FA03F3012D02D19689334006E0022DB3
:100FA00002D1168A334001E0968A33400C120126A2
:100FB00006FA04F41688344013B10CB1012000E0A5
:100FC000002070BD10B50022002340F66A14A14233
:100FD00000D100BF0A1201249440A3B2DC43048074
:100FE00010BD0000003801400044004000480040AF
:100FF000004C00400050004010B50120FFF7C8FD34
:101000000020FFF7C5FD10BD2A4908607047294937
:10101000091F0860704727498431086070470146FE
:101020000020254A10884FF67F4210400843224A8C
:1010300010807047014600201F4A10884FF68072CA
:10104000104008431C4A1080704708B500220092E7
:10105000194A2C3A0092009A02440092009A1160B8
:1010600008BD08B501460020009013482C380090B8
:101070000098084400900098008808BD0D489C30F6
:101080000068C0B270470C480830008840F001008A
:1010900009490831088070470648A0300068C0B28E
:1010A000704705480830008840F0020002490831C6
:1010B0000880704704860D422C6C004010B5012159
:1010C0000807FFF758FD00214FF08050FFF753FD50
:1010D00010BD2A49086270472849086170470146D7
:1010E0000020274A106820F0E00008431060704795
:1010F0002249A0310860704710B502460020204BFD
:10110000186820F00300104318601E4B1B6843F062
:1011100004031C4C2360012901D130BF00E020BF33
:10112000184B1B6823F00403164C236010BD1448B1
:10113000006840F00400124908600846006840F06A
:10114000020008600F48006840F004000D49086084
:1011500000BF00BF30BF704701460020084A5268F8
:101160000A400AB1012000E00020704704490968E4
:1011700041EA8001024A11607047000000000E42FF
:101180000070004010ED00E029B1504A128802437F
:101190004E4B1A8004E04D4A128882434B4B1A8012
:1011A00070474A48001D008840F010004749091D5B
:1011B000088070474548001D00884FF6EF710840D1
:1011C0004249091D08807047002140481C300188B1
:1011D000001F008841EA0040704700B50246FFF753
:1011E000E0FF100C394918310880091D0A80FFF70B
:1011F000E1FF00BD00B50246FFF7D3FFC2F3034095
:10120000324908310880091D0A80FFF7D3FF00BD6D
:1012100000B50246FFF7C5FF100C2C4920310880AD
:10122000091D0A80FFF7C6FF00BD002027491031C5
:1012300009880907080B25491431098808437047B4
:1012400000BF2248001D008800F020000028F8D0D0
:1012500070471E48001D00884FF6F77108401B4973
:10126000091D088000BF1948001D008800F0080013
:101270000028F8D0704701460020144A121D128839
:101280000A400AB1012000E0002070470F49091D03
:10129000098881430D4A121D1180704701460020C4
:1012A0000A4A121D12880A40D0B2084A12880A401F
:1012B00012B108B1012000E0002070470349091D68
:1012C00009888143014A121D11807047002800409F
:1012D00001460020FE4A106800F038000843106004
:1012E0007047FB49096821F00801F94A116011466D
:1012F0000968014311607047F549096821F0100140
:10130000F34A116011460968014311607047F148C2
:10131000EF494860F04848607047EE48EC49486043
:10132000ED4848607047EA48006940F08000E849AD
:1013300008617047E648006940F08000E4490861B0
:1013400070470420E249C96801F0010109B1012098
:101350000EE0DF49C96801F0040109B1022007E08D
:10136000DB49C96801F0100109B1032000E0042045
:10137000704700B502460423FFF7E3FF034603E08E
:10138000FFF7DFFF0346521E012B01D1002AF7D1E0
:1013900002B90523184600BD30B5044604254FF4B4
:1013A0003020FFF7E6FF0546042D17D1C848006935
:1013B00040F00200C649086108464461006940F0F7
:1013C000400008614FF43020FFF7D3FF0546C048C6
:1013D000006941F6FD710840BD490861284630BDED
:1013E00010B504244FF43020FFF7C3FF0446042C4B
:1013F00016D1B748006940F00400B54908610846B5
:10140000006940F0400008614FF43020FFF7B1FF61
:101410000446AF48006941F6FB710840AC490861D9
:10142000204610BD00B502460423FFF78AFF03469D
:1014300003E0FFF786FF0346521E012B01D1002A6D
:10144000F7D102B90523184600BD10B504244FF4A6
:101450003020FFF7E7FF0446042C16D19C480069B2
:1014600040F004009A4908610846006940F04000D5
:1014700008614FF43020FFF7D5FF04469448006917
:1014800041F6FB71084092490861204610BD0020DA
:101490008F49C96901F0020109B1012000E0002073
:1014A000704730B5A5250424FFF7F1FF00B10025F2
:1014B0004FF43020FFF75DFF0446042C3AD18548F5
:1014C00083498860844888600846006940F02000AD
:1014D00008610846006940F0400008614FF4302080
:1014E000FFF747FF0446042C1BD17948006941F6F9
:1014F000DF710840764908610846006940F0100035
:10150000086176480580E002FFF733FF0446052CAA
:1015100010D06F48006941F6EF7108406C490861CE
:1015200008E0052C06D06A48006941F6EF710840D2
:1015300067490861204630BD78B506460C4604254B
:1015400000200090E802FFF714FF0546042D24D187
:101550005F48006940F001005D4908613480E8029D
:10156000FFF707FF0546042D10D1B01C0090200C9A
:1015700000990880E802FFF7FCFE05465448006920
:1015800041F6FE7108405249086106E05048006982
:1015900041F6FE7108404E490861284678BD70B595
:1015A00004460D460426F002FFF7E3FE0646042E2D
:1015B00011D14748006940F0010045490861258084
:1015C000F002FFF7D6FE06464148006941F6FE717B
:1015D00008403F490861304670BD70B505460E466B
:1015E0000424E002FFF7C5FE0446042C17D1394855
:1015F00037498860384888600846006940F0100024
:1016000008612E80E002FFF7B4FE0446052C06D0E8
:101610002F48006941F6EF7108402D4908612046C6
:1016200070BD2DE9F04304464FF6FF763746B046CD
:10163000B1460425E443E6B2C4F30727C4F30748E0
:101640004FEA1469E802FFF794FE0546042D49D1DC
:1016500020481F498860204888600846006940F09B
:1016600010000861FF2E06D01C4808300680E802F2
:10167000FFF77FFE0546042D08D1FF2F06D017483F
:101680000A300780E802FFF774FE0546042D0AD1F0
:10169000B8F1FF0F07D011480C30A0F80080E80225
:1016A000FFF767FE0546042D0AD1B9F1FF0F07D0F9
:1016B0000A480E30A0F80090E802FFF75AFE0546EF
:1016C000052D0FD00248006941F6EF71084007E090
:1016D0000020024023016745AB89EFCD00F8FF1FD2
:1016E000664908612846BDE8F08330B50546042404
:1016F0004FF43020FFF73DFE0446042C41D16048F2
:101700005E4988605F4888600846006940F02000B4
:1017100008610846006940F0400008614FF430203D
:10172000FFF727FE0446042C22D15448006941F6F5
:10173000DF710840514908610846006940F0100017
:1017400008611DB100205049088002E0A5204E49E3
:1017500008804FF43020FFF70CFE0446052C10D013
:101760004648006941F6EF7108404449086108E0C5
:10177000052C06D04148006941F6DF7108403F4919
:101780000861204630BDF0B505460E4617460424D4
:101790003B483A4988603B488860E002FFF7E9FD32
:1017A0000446042C19D13548006940F01000334933
:1017B000086147F0F800304328433349891C08800A
:1017C000E002FFF7D6FD0446052C06D02B48006941
:1017D00041F6EF710840294908612046F0BD2748CD
:1017E000C069800870472548006A70470020234977
:1017F000096801F0200109B1012000E000207047D4
:1018000029B11E4A126902431C4B1A6104E01B4AAB
:1018100012698243194B1A61704701460020012961
:1018200008D1164AD26902F001020AB1012008E08B
:10183000002006E0114AD2680A400AB1012000E007
:10184000002070470D49C860704704200B49C968E3
:1018500001F0010109B101200EE00849C96801F059
:10186000040109B1022007E00449C96801F0100130
:1018700009B1032000E0042070470000002002406E
:1018800023016745AB89EFCD00F8FF1F10B5044673
:10189000F748844209D101214805FFF76CF900217E
:1018A0004FF40010FFF767F908E001218805FFF702
:1018B00062F900214FF48000FFF75DF910BD2DE9BA
:1018C000F04385B004460D460026B1460427DFF8F4
:1018D000A483A6884FF6C07006406846FFF7B7F8A5
:1018E000DDF80880E448B8FBF0F01FFA80F946EA1A
:1018F0000906A68020884FF6FE7108402080002649
:10190000DE49286888420CD828684000B8FBF0F00F
:1019100087B2042F00DA04273E4309F10100208436
:1019200027E0E8884BF6FF71884206D1286800EB73
:101930004000B8FBF0F087B209E0286800EBC00176
:1019400001EB0010B8FBF0F087B247F48047C7F313
:101950000B0008B947F0010747F4004006434FF475
:10196000967009FB00F04FF47A7190FBF1F0401C87
:101970002084A683208840F00100208026884FF62E
:10198000F5300640A8886989084306432680A8895F
:1019900029890843208105B0BDE8F08341F28831F0
:1019A0000160002181804BF6FF71C180002101811F
:1019B00041814FF480418181704721B1028842F01A
:1019C0000102028004E002884FF6FE731A40028092
:1019D000704721B1828842F40062828004E08288EC
:1019E0004FF2FF731A408280704721B1828842F41F
:1019F0008052828004E082884EF6FF731A40828013
:101A0000704721B1028842F48072028004E00288AB
:101A10004FF6FF631A400280704721B1028842F4FA
:101A20000072028004E002884FF6FF531A400280E1
:101A3000704721B1028842F48062028004E002888B
:101A40004FF6FF331A40028070470A460021818911
:101A50004FF60173194002F0FE031943818170476C
:101A600021B1828942F00102828104E082894FF62D
:101A7000FE731A408281704721B1028842F0400211
:101A8000028004E002884FF6BF731A40028070475C
:101A90001AB183880B43838002E083888B43838061
:101AA0007047018270470146088AC0B2704712B180
:101AB00041F0010102E04FF6FE73194001827047C8
:101AC00008B502460020009000920098084400905B
:101AD0000098008808BD21B1028842F400420280CB
:101AE00003E00288C2F30E0202807047B1F5006F76
:101AF00004D1028842F40062028004E002884FF2BE
:101B0000FF731A4002807047B1F5005F04D102886C
:101B100042F40052028004E002884DF6FF731A403E
:101B20000280704721B1028842F48052028004E0B2
:101B300002884EF6FF731A4002807047B1F5006FBD
:101B400004D1028842F40062028004E002884FF26D
:101B5000FF731A400280704721B1028842F02002D0
:101B6000028004E002884FF6DF731A40028070475B
:101B70000146088B0012704721B1028842F0100222
:101B8000028004E002884FF6EF731A40028070472B
:101B900021B9028842F08002028004E002884FF6F8
:101BA0007F731A4002807047B1F5804F05D0828B59
:101BB0004BF6FF731A40828303E0828B42F480422B
:101BC0008283704770B50246002400250023002060
:101BD000958A138B1B0445EA030626F07F4404EA2A
:101BE00001068E4201D1012000E0002070BD10B539
:101BF00001460020002300228B8A0A8B120443EA4C
:101C0000020424F07F4010BD0CB5024600200023E2
:101C10000193009300920B0F019321F07F41019BF0
:101C20001BB1009B1433009303E0090C009B183395
:101C30000093009B1B680B400BB1012000E00020CB
:101C40000CBD002221F07F42D3438382704730B520
:101C5000024600200023948801F0E06504EA154361
:101C600021F07F41948A0C4054B14BB1012008E02F
:101C70000054004000127A0040420F00A08601008C
:101C8000002030BD002221F07F42D3438382704781
:101C90000948804709480047FEE7FEE7FEE7FEE700
:101CA000FEE7FEE7FEE7FEE7FEE7FEE7044805493C
:101CB000054A064B7047000013030008ED000008BA
:101CC00078010020780700207803002078030020A6
:101CD0008EB000200790069002F0BEFA03F0A8F93B
:101CE000C82002F099FA02F01FFC03F0BFF802F0DE
:101CF000ACFD03A803F03CF903F028F802F00EFF56
:101D000002F03AFF00200D9004900B9008900A908A
:101D1000099003F0AEF9002003F0B4F900200C9014
:101D200022E0FE490C9801EB4000029002F0DBFA41
:101D30000B900B98C117029000EB1160C0F30721C4
:101D4000F74A0C9811540B98C117029000EB1160E0
:101D500001120298A0EB0120C1B2F24A0C98115472
:101D60000C98401C80B20C900C980A28D9DBEC48E7
:101D7000007818281BDD00200C9013E00C98082830
:101D800004DA1821E64A0C98115403E00021E44AD1
:101D90000C9811540021E34A0C9811540C98401CE3
:101DA00080B20C900C980A28E8DB02F09FFA02F04F
:101DB00006BA0498012811D100200490DA4800786E
:101DC000DA490978CDE90010D9480378D948027872
:101DD000D9480178D948008802F0F6FB0D9803280D
:101DE00002DB0D98082806DD0D9810B903A803F052
:101DF000BFF802F07DFC0D9803281BDA0B98401CFD
:101E000080B20B900B98012800D10D9041F28831DF
:101E10000B98884201D100200D900B98B0F5FA5F25
:101E200001D102200D9042F6F8210B98884201DB87
:101E300000200B900D9803287EDA0D9800285AD1C7
:101E4000BE480088642190FBF1F201FB12000A21D8
:101E500090FBF1F0C0B201460290002003F03FF881
:101E6000B6480088642190FBF1F201FB12000A21C0
:101E700090FBF1F201FB1200C0B20146029001207A
:101E800003F02DF81521022003F029F8AA48007864
:101E90000A2190FBF1F0C0B201460290032003F04A
:101EA0001EF8A54800780A2190FBF1F201FB120010
:101EB000C0B201460290042003F011F8152105205C
:101EC00003F00DF89B4800780A2190FBF1F0C0B2B6
:101ED00001460290062003F002F8964800780A2195
:101EE00090FBF1F201FB1200C0B201460290072004
:101EF00002F0F5FFA1E00D98012854D11421002033
:101F000002F0EDFF1421012002F0E9FF884800787B
:101F10000A2190FBF1F0C0B201460290022002F0CB
:101F2000DEFF834800780A2190FBF1F201FB1200EA
:101F30000A30C0B2014600E0BFE00290032002F088
:101F4000CEFF7A4800780A2190FBF1F0C0B201463A
:101F50000290042002F0C3FF744800780A2190FB2D
:101F6000F1F201FB12000A30C0B2014602900520D6
:101F700002F0B5FF6C4800780A2190FBF1F0C0B286
:101F800001460290062002F0AAFF674800780A2165
:101F900090FBF1F201FB1200C0B201460290072053
:101FA00002F09DFF49E01421002002F098FF142167
:101FB000012002F094FF1421022002F090FF9DF80E
:101FC0000C0020B91421032002F089FF03E0152141
:101FD000032002F084FF9DF80D00642190FBF1F2D4
:101FE00001FB12000A2190FBF1F0C0B20146029001
:101FF000042002F074FF9DF80D000A2190FBF1F21D
:1020000001FB12000A30C0B201460290052002F026
:1020100066FF9DF80E00642190FBF1F201FB1200B7
:102020000A2190FBF1F0C0B201460290062002F0B6
:1020300056FF1621072002F052FF01214048FEF70B
:102040004AFB50B900200D9002F07CFD00BF012139
:102050003B48FEF740FB0028F9D002213848FEF744
:102060003AFB50B901200D9002F06CFD00BF022137
:102070003348FEF730FB0028F9D004213048FEF742
:102080002AFB50B902200D9002F05CFD00BF042134
:102090002B48FEF720FB0028F9D008212848FEF73E
:1020A0001AFB50B903200D9002F04CFD00BF08212F
:1020B0002348FEF710FB0028F9D00D98032825D1FE
:1020C0001721002002F00BFF1821012002F007FF6A
:1020D0001921022002F003FF1421032002F0FFFE69
:1020E0001421042002F0FBFE1421052002F0F7FE6B
:1020F0001421062002F0F3FE1421072002F0EFFE67
:1021000002F055FD64200D90002005900D98642884
:102110007DD1059800BB1721002013E000F00108D5
:10212000380000204200002034000020330000204E
:102130003200002031000020300000202E0000205E
:102140000008014002F0CBFE1821012002F0C7FE7A
:102150001921022002F0C3FE059801280EDB059824
:1021600009280BDA1A21002002F0B9FE1B210120F8
:1021700002F0B5FE0220059902F0B1FE059809288B
:1021800012DB05980A280FDC1921002002F0A7FEB7
:102190001621012002F0A3FE05980838C0B20146BE
:1021A0000290022002F09BFE0121FE48FEF793FA06
:1021B00000285DD106E00698401CC0B206900A20B7
:1021C00002F02AF80121F748FEF785FA10B90698BF
:1021D0006428F0DB0698642837DB2FE040F2BD204E
:1021E0000C900598401CC0B2059005980A2801DDA6
:1021F00000200590059868B91721002002F06FFEB5
:102200001821012002F06BFE1921022000E0B1E04C
:1022100002F065FE059801280BDB1A21002002F070
:102220005EFE1B21012002F05AFE0220059902F0F9
:1022300056FE502001F0F0FF02F084FC0121D94845
:10224000FEF749FA0028C9D00FE0079868B940F2B4
:10225000BD200C900598401CC0B2059005980A2836
:1022600001DD0020059002F06DFC00200790069033
:102270000221CC48FEF72FFA002859D106E0069833
:10228000401CC0B206900A2001F0C6FF0221C548DA
:10229000FEF721FA10B906986428F0DB0698642846
:1022A00034DB2CE040F2BD200C90059808B90B20DF
:1022B00005900598401EC0B20590059858B91721A1
:1022C000002002F00CFE1821012002F008FE192166
:1022D000022002F004FE059801280BDB1A210020E1
:1022E00002F0FDFD1B21012002F0F9FD02200599FD
:1022F00002F0F5FD502001F08FFF02F023FC0221D7
:10230000A848FEF7E8F90028CCD00EE0079860B99D
:1023100040F2BD200C90059808B90B200590059857
:10232000401EC0B2059002F00DFC00200790069000
:1023300004219C48FEF7CFF960B905986530C0B21A
:102340000D9002F0FFFB00BF04219648FEF7C3F991
:102350000028F9D008219348FEF7BDF950B90020B4
:102360000D9002F06AFC00BF08218E48FEF7B3F919
:102370000028F9D00D98652801D104200D900D9802
:10238000662804DB0D986E2801DA96200D900D98D2
:102390006E2804DB0D98702801DAD2200D900D987C
:1023A000042876D10C98401C80B20C900C98B0F5A3
:1023B0002F7F22DD7C480088642190FBF1F201FB35
:1023C00012000A2190FBF1F0C0B2014602900020F9
:1023D00002F085FD74480088642190FBF1F201FB56
:1023E00012000A2190FBF1F201FB1200C0B201467B
:1023F0000290012002F073FD07E01421002002F09A
:102400006EFD1421012002F06AFD0C98B0F5AF6F4B
:1024100001DD00200C901521022002F060FD6348D0
:1024200000780A2190FBF1F0C0B20146029003202F
:1024300002F055FD5D4800780A2190FBF1F201FBA6
:102440001200C0B201460290042002F048FD15219E
:10245000052002F044FD564800780A2190FBF1F077
:10246000C0B201460290062002F039FD50480078C3
:102470000A2190FBF1F201FB1200C0B2014602906A
:10248000072002F02CFD01214648FEF724F9E0BBAD
:1024900007E00AE10698401CC0B206900A2001F04D
:1024A000BBFE01213F48FEF716F910B906986428D3
:1024B000F0DB0698642842DB3AE040F2BD200C9045
:1024C00039480088401C384908800846008840F692
:1024D0003301884203DD4FF4FA6033490880324803
:1024E0000088642190FBF1F201FB12000A2190FBAD
:1024F000F1F0C0B201460290002002F0F0FC2A4840
:102500000088642190FBF1F200E031E001FB120051
:102510000A2190FBF1F201FB1200C0B201460290C9
:10252000012002F0DCFC502001F076FE02F00AFBF4
:1025300001211C48FEF7CFF80028BED015E007980F
:1025400098B940F2BD200C9017480088401C1649ED
:1025500008800846008840F63301884203DD4FF4C6
:10256000FA601149088002F0EDFA00200790069009
:1025700002210C48FEF7AFF8F0BB06E00698401CBD
:10258000C0B206900A2001F047FE02210548FEF77E
:10259000A2F810B906986428F0DB0698642849DB95
:1025A00041E00000000801402E0000203000002023
:1025B0003100002040F2BD200C90FE480088401EF3
:1025C000FC49088008460088B0F5FA6F02DA40F648
:1025D00033000880F7480088642190FBF1F201FB8A
:1025E00012000A2190FBF1F0C0B2014602900020D7
:1025F00002F075FCEF4800E033E00088642190FBB6
:10260000F1F201FB12000A2190FBF1F201FB120032
:10261000C0B201460290012002F061FC502001F09E
:10262000FBFD02F08FFA0221E348FEF754F8002880
:10263000C0D013E0079888B940F2BD200C90DD4867
:102640000088401EDB49088008460088B0F5FA6F14
:1026500002DA40F63300088002F074FA0020079096
:1026600006900421D448FEF736F860B905200D9095
:102670000120049002F066FA00BF0421CE48FEF764
:102680002AF80028F9D00821CB48FEF724F860B9D1
:1026900000200D900120049002F0CFFA00BF082125
:1026A000C548FEF718F80028F9D00D98052876D10E
:1026B0000C98401C80B20C90BE480088642190FBAE
:1026C000F1F201FB12000A2190FBF1F0C0B20146C9
:1026D0000290002002F003FCB6480088642190FBC1
:1026E000F1F201FB12000A2190FBF1F201FB120052
:1026F000C0B201460290012002F0F1FB1521022038
:1027000002F0EDFB0C98B0F52F7F18DDAB48007898
:102710000A2190FBF1F0C0B201460290032002F0C2
:10272000DEFBA64800780A2190FBF1F201FB1200C3
:10273000C0B201460290042002F0D1FB07E0142150
:10274000032002F0CCFB1421042002F0C8FB0C98FB
:10275000B0F5AF6F01DD00200C901521052002F0CF
:10276000BEFB974800780A2190FBF1F0C0B2014609
:102770000290062002F0B3FB914800780A2190FBFA
:10278000F1F201FB1200C0B201460290072002F0F4
:10279000A6FB01218848FDF79EFFE0BB07E0E1E0D2
:1027A0000698401CC0B206900A2001F035FD0121B8
:1027B0008148FDF790FF10B906986428F0DB069871
:1027C000642834DB2CE040F2BD200C907B4800787C
:1027D000401C7A490870084600780C2801DD012069
:1027E0000870764800780A2190FBF1F0C0B20146EB
:1027F0000290032002F073FB704800780A2190FBDE
:10280000F1F201FB1200C0B201460290042002F076
:1028100066FB502000E01FE001F0FEFC02F092F9A0
:1028200001216548FDF757FF0028CCD011E007983B
:1028300078B940F2BD200C9060480078401C5F4998
:102840000870084600780C2801DD0120087002F0AD
:1028500079F900200790069002215748FDF73BFFC9
:10286000E8BB06E00698401CC0B206900A2001F0C2
:10287000D3FC02215048FDF72EFF10B906986428BA
:10288000F0DB0698642834DB2CE040F2BD200C908D
:102890004A480078401E49490870084600780128D7
:1028A00001DA0C200870454800780A2190FBF1F00D
:1028B000C0B201460290032002F011FB3F480078AD
:1028C0000A2190FBF1F201FB1200C0B20146029016
:1028D000042002F004FB502001F09EFC00E01DE00B
:1028E00002F030F902213448FDF7F5FE0028CCD083
:1028F00011E0079878B940F2BD200C902F4800787D
:10290000401E2E49087008460078012801DA0C2084
:10291000087002F017F9002007900690042126485D
:10292000FDF7D9FE60B906200D900120049002F059
:1029300009F900BF04212048FDF7CDFE0028F9D099
:1029400008211D48FDF7C7FE60B900200D90012049
:10295000049002F072F900BF08211748FDF7BBFE92
:102960000028F9D00D9806287ED10C98401C80B222
:102970000C9010480088642190FBF1F201FB1200DA
:102980000A2190FBF1F0C0B201460290002002F053
:10299000A6FA08480088642190FBF1F201FB1200BE
:1029A0000A2190FBF1F201FB1200C0B20146029035
:1029B000012007E02E000020000801403000002028
:1029C0003100002002F08BFA1521022002F087FA74
:1029D000FE4800780A2190FBF1F0C0B20146029057
:1029E000032002F07CFAF94800780A2190FBF1F20A
:1029F00001FB1200C0B201460290042002F06FFAFF
:102A00001521052002F06BFA0C98B0F52F7F18DD28
:102A1000EF4800780A2190FBF1F0C0B20146029025
:102A2000062002F05CFAEA4800780A2190FBF1F2F5
:102A300001FB1200C0B201460290072002F04FFADB
:102A400007E01421062002F04AFA1421072002F0C0
:102A500046FA0C98B0F5AF6F01DD00200C90012113
:102A6000DC48FDF738FE00E0E3E0E8BB06E006984E
:102A7000401CC0B206900A2001F0CEFB0121D548CF
:102A8000FDF729FE10B906986428F0DB0698642843
:102A900034DB2CE040F2BD200C90CD480078401C87
:102AA000CB490870084600781F2801DD0120087016
:102AB000C74800780A2190FBF1F0C0B201460290AD
:102AC000062002F00CFAC24800780A2190FBF1F2CD
:102AD00001FB1200C0B201460290072002F0FFF98C
:102AE000502001F099FB00E01DE002F02BF80121DD
:102AF000B848FDF7F0FD0028CCD011E0079878B970
:102B000040F2BD200C90B2480078401CB0490870DB
:102B1000084600781F2801DD0120087002F012F835
:102B20000020079006900221AA48FDF7D4FDE8BBDB
:102B300006E00698401CC0B206900A2001F06CFB2B
:102B40000221A448FDF7C7FD10B906986428F0DB00
:102B50000698642834DB2CE040F2BD200C909C48A1
:102B60000078401E9A49087008460078012801DA6A
:102B70001F200870964800780A2190FBF1F0C0B23F
:102B800001460290062002F0AAF9914800780A2135
:102B900090FBF1F201FB1200C0B201460290072047
:102BA00002F09DF9502001F037FB00E01DE001F03C
:102BB000C9FF02218748FDF78EFD0028CCD011E027
:102BC000079878B940F2BD200C9081480078401EEB
:102BD0007F49087008460078012801DA1F20087034
:102BE00001F0B0FF00200790069004217948FDF71E
:102BF00072FD60B907200D900120049001F0A2FF42
:102C000000BF04217348FDF766FD0028F9D00821B4
:102C10007048FDF760FD60B900200D900120049020
:102C200002F00BF800BF08216A48FDF754FD0028A8
:102C3000F9D00D9807286ED10C98401C80B20C90EA
:102C40001421002002F04BF91421012002F047F971
:102C50000C98B0F52F7F19DD5F4800780A2190FBB2
:102C6000F1F0C0B201460290022002F038F95A4851
:102C700000780A2190FBF1F201FB12000A30C0B289
:102C800001460290032002F02AF907E014210220F5
:102C900002F025F91421032002F021F94F480078B1
:102CA0000A2190FBF1F0C0B201460290042002F02C
:102CB00016F94A4800780A2190FBF1F201FB120054
:102CC0000A30C0B201460290052002F008F94448DB
:102CD00000780A2190FBF1F0C0B201460290062074
:102CE00002F0FDF83E4800780A2190FBF1F201FB6A
:102CF0001200C0B201460290072002F0F0F80C98D2
:102D0000B0F5AF6F01DD00200C9001213148FDF7D7
:102D1000E2FCE8BB07E0F0E00698401CC0B2069079
:102D20000A2001F079FA01212A48FDF7D4FC10B9F4
:102D300006986428F0DB0698642835DB2DE040F225
:102D4000BD200C9024480078401C23490870084698
:102D50000078172801DD002008701F4800780A213C
:102D600090FBF1F0C0B201460290022002F0B7F8E9
:102D7000194800780A2190FBF1F201FB12000A3099
:102D8000C0B201460290032002F0A9F8502000E0F2
:102D90002DE001F041FA01F0D5FE01210D48FDF7CB
:102DA0009AFC0028CBD01FE00798E8B940F2BD207C
:102DB0000C9009480078401C0749087008460078C4
:102DC000172801DD002008700CE000003000002012
:102DD00031000020000801403200002033000020B4
:102DE0003400002001F0AEFE002007900690022182
:102DF000FE48FDF770FCE0BB06E00698401CC0B240
:102E000006900A2001F008FA0221F848FDF763FC59
:102E100010B906986428F0DB0698642835DB2DE0AD
:102E200040F2BD200C90F248007810B91820F0490B
:102E30000870EF480078401EED4908700846007899
:102E40000A2190FBF1F0C0B201460290022002F08C
:102E500046F8E74800780A2190FBF1F201FB1200E6
:102E60000A30C0B201460290032002F038F8502028
:102E700000E01FE001F0D0F901F064FE0221DB4820
:102E8000FDF729FC0028CBD011E0079878B940F273
:102E9000BD200C90D648007810B91820D44908708D
:102EA000D3480078401ED249087001F04BFE002044
:102EB000079006900421CD48FDF70DFC60B908206D
:102EC0000D900120049001F03DFE00BF0421C74891
:102ED000FDF701FC0028F9D00821C448FDF7FBFBF1
:102EE00058B901200D90049001F0A7FE00BF082101
:102EF000BE48FDF7F0FB0028F9D00D9808286ED1E8
:102F00000C98401C80B20C901421002001F0E7FFC7
:102F10001421012001F0E3FFB54800780A2190FB5D
:102F2000F1F0C0B201460290022001F0D8FFB04893
:102F300000780A2190FBF1F201FB12000A30C0B2C6
:102F400001460290032001F0CAFF0C98B0F52F7FD4
:102F500019DDA84800780A2190FBF1F0C0B20146C3
:102F60000290042001F0BBFFA24800780A2190FBE8
:102F7000F1F201FB12000A30C0B2014602900520B6
:102F800001F0ADFF07E01421042001F0A8FF142197
:102F9000052001F0A4FF984800780A2190FBF1F089
:102FA000C0B201460290062001F099FF92480078D5
:102FB0000A2190FBF1F201FB1200C0B2014602901F
:102FC000072001F08CFF0C98B0F5AF6F01DD0020F9
:102FD0000C9001218548FDF77EFBE8BB07E0EEE0A1
:102FE0000698401CC0B206900A2001F015F9012194
:102FF0007E48FDF770FB10B906986428F0DB069850
:10300000642838DB30E040F2BD200C90794800782D
:10301000401C78490870084600783B2801DD0020F4
:103020000870002074490870724800780A2190FBEB
:10303000F1F0C0B201460290042001F050FF6D484B
:1030400000780A2190FBF1F201FB12000A30C0B2B5
:1030500001460290052000E025E001F040FF5020ED
:1030600001F0DAF801F06EFD01216048FDF733FB55
:103070000028C8D014E0079890B940F2BD200C9009
:103080005C480078401C5B490870084600783B2883
:1030900001DD0020087000205749087001F052FD42
:1030A00000200790069002215048FDF714FBE0BB7A
:1030B00006E00698401CC0B206900A2001F0ACF869
:1030C00002214A48FDF707FB10B906986428F0DB97
:1030D0000698642838DB30E040F2BD200C9045486B
:1030E000007810B93C204349087042480078401EDF
:1030F000404908700020404908703E4800780A2185
:1031000090FBF1F0C0B201460290042001F0E7FE0E
:10311000384800780A2190FBF1F201FB12000A30D6
:10312000C0B201460290052000E025E001F0D7FE84
:10313000502001F071F801F005FD02212B48FDF748
:10314000CAFA0028C8D014E0079890B940F2BD2010
:103150000C902848007810B93C2026490870254872
:103160000078401E2349087000202349087001F0B0
:10317000E9FC00200790069004211C48FDF7ABFAFB
:1031800060B904200D900120049001F0DBFC00BF29
:1031900004211648FDF79FFA0028F9D008211348AA
:1031A000FDF799FA58B901200D90049001F045FD02
:1031B00000BF08210D48FDF78EFA0028F9D00D98C0
:1031C000962873D10C98401C80B20C901A210020D4
:1031D00001F085FE1B21012001F081FE02200599EE
:1031E00001F07DFE0C98B0F52F7F07E0000801404C
:1031F00032000020330000203400002030DD05982C
:10320000401EFD49085C18280CD11C21042001F047
:1032100066FE1D21052001F062FE1D21062001F041
:103220005EFE38E00598401EF349085C0A2190FBD9
:10323000F1F0C0B201460290042001F050FE059862
:10324000401EED49085C0A2190FBF1F201FB1200DF
:103250000A30C0B201460290052001F040FE1AE09B
:103260000598401EE449085C18280CD1142104205C
:1032700001F035FE1421052001F031FE1421062055
:1032800001F02DFE07E01421042001F028FE142196
:10329000052001F024FE0598401ED749085C182837
:1032A00005D11421072001F01AFE1CE03EE105982B
:1032B000401ED249085C0A2190FBF1F0C0B20146E1
:1032C0000290062001F00BFE0598401ECB49085CD9
:1032D0000A2190FBF1F201FB1200C0B201460290FC
:1032E000072001F0FCFD0C98B0F5AF6F01DD002068
:1032F0000C900121C248FDF7EEF9E8BB06E0069804
:10330000401CC0B206900A2000F086FF0121BC4894
:10331000FDF7E1F910B906986428F0DB06986428F7
:1033200042DB3AE040F2BD200C900598401EB249C5
:10333000085C401CC1B20598401EAF4A1154059864
:10334000401E1146085C182803DD00210598401E28
:1033500011540598401EA849085C0A2190FBF1F021
:10336000C0B201460290042001F0B9FD0598401E4C
:10337000A149085C0A2100E034E090FBF1F201FB76
:1033800012000A30C0B201460290052001F0A7FDEC
:10339000502000F041FF01F0D5FB01219848FDF7D6
:1033A0009AF90028BED01AE00798C0B940F2BD20B3
:1033B0000C900598401E9049085C401CC1B20598CD
:1033C000401E8D4A11540598401E1146085C18286D
:1033D00003DD00210598401E115401F0B3FB0020CD
:1033E0000790069002218648FDF775F9E8BB06E0D4
:1033F0000698401CC0B206900A2000F00DFF022182
:103400007F48FDF768F910B906986428F0DB069844
:10341000642842DB3AE040F2BD200C900598401E43
:103420007549085C20B919210598401E724A11544B
:103430000598401E7049085C401EC1B20598401EA8
:103440006D4A11540598401E1146085C0A2190FBF4
:10345000F1F0C0B201460290042001F040FD059851
:10346000401E6549085C0A2100E034E090FBF1F25F
:1034700001FB12000A30C0B201460290052001F0A3
:103480002EFD502000F0C8FE01F05CFB02215C48DC
:10349000FDF721F90028BED01AE00798C0B940F224
:1034A000BD200C900598401E5349085C20B9192195
:1034B0000598401E504A11540598401E4E49085C1C
:1034C000401EC1B20598401E4B4A115401F03AFB10
:1034D00000200790069004214948FDF7FCF890B9B8
:1034E0000598401E4449085C182801D097200D908B
:1034F00001F028FB00F0FAFE00BF04214048FDF770
:10350000EAF80028F9D008213D48FDF7E4F868B949
:1035100001200D90049000F0E9FE01F08EFB00BF49
:1035200008213748FDF7D7F80028F9D00D989728DB
:1035300061D10C98401C80B20C901A21002001F03F
:10354000CEFC1B21012001F0CAFC0220059901F0EC
:10355000C6FC0598401E2849085C0A2190FBF1F042
:10356000C0B201460290042001F0B9FC0598401E4B
:103570002149085C0A2190FBF1F201FB12000A309C
:10358000C0B201460290052001F0A9FC0C98B0F5EC
:103590002F7F1CDD0598401E1849085C0A2190FB0E
:1035A000F1F0C0B201460290062001F098FC0598A7
:1035B000401E1249085C0A2190FBF1F201FB120047
:1035C000C0B201460290072001F089FC07E01421F7
:1035D000062001F084FC1421072001F080FC0C98E7
:1035E000B0F5AF6F01DD00200C9001210448FDF71C
:1035F00072F8E8BB0DE014E1380000204200002022
:10360000000801400698401CC0B206900A2000F055
:1036100003FE0121FE48FDF75EF810B90698642804
:10362000F0DB0698642841DB39E040F2BD200C90C5
:103630000598401EF749085C401CC1B20598401E21
:10364000F44A11540598401E1146085C3B2803DDDE
:1036500000210598401E11540598401EED49085C54
:103660000A2190FBF1F0C0B201460290062000E072
:103670003AE001F034FC0598401EE649085C0A2156
:1036800090FBF1F201FB1200C0B20146029007204C
:1036900001F025FC502000F0BFFD01F053FA01219C
:1036A000DB48FDF718F80028BFD01AE00798C0B92A
:1036B00040F2BD200C900598401ED649085C401C85
:1036C000C1B20598401ED34A11540598401E1146B8
:1036D000085C3B2803DD00210598401E115401F0D1
:1036E00031FA0020079006900221C948FCF7F3FF49
:1036F000E8BB06E00698401CC0B206900A2000F025
:103700008BFD0221C248FCF7E6FF10B90698642839
:10371000F0DB0698642841DB39E040F2BD200C90D4
:103720000598401EBB49085C20B93C210598401E05
:10373000B84A11540598401EB649085C401EC1B2F3
:103740000598401EB34A11540598401E1146085C66
:103750000A2190FBF1F0C0B201460290062001F070
:10376000BEFB0598401EAB49085C0A2100E033E02F
:1037700090FBF1F201FB1200C0B20146029007205B
:1037800001F0ADFB502000F047FD01F0DBF9022114
:103790009F48FCF7A0FF0028BFD01AE00798C0B9E7
:1037A00040F2BD200C900598401E9A49085C20B953
:1037B0003C210598401E974A11540598401E954992
:1037C000085C401EC1B20598401E924A115401F097
:1037D000B9F900200790069004218D48FCF77BFF83
:1037E00060B996200D9000F081FD01F0ABF900BFAB
:1037F00004218748FCF76FFF0028F9D0082184488E
:10380000FCF769FF68B901200D90049000F06EFD8F
:1038100001F013FA00BF08217D48FCF75CFF002887
:10382000F9D00D98032851DA0898E8BB00200790DA
:1038300049E079490798085C7849097888423ED17F
:1038400074490798085C76490978884237D17548E9
:10385000007850BB012008900798069000200C903B
:103860000B900698042808D00698052805D00698DD
:10387000062802D0069807281FD101F0DEF9069825
:10388000042802D1012001F0F4FB0698052802D19A
:10389000002001F0EEFB0698062802D1012001F07D
:1038A000F1FB0698072801E010E008E002D10020B3
:1038B00001F0E8FB01200D9001E0C8200D90079871
:1038C000401CC0B2079007980828B2DB089801286E
:1038D0000CD10B98401C80B20B900B98B0F57A7FFE
:1038E00004DD01200D90002008900B900D98C82851
:1038F0007DD101F0A2F90C98401C80B20C900C987C
:10390000012845DD1A21002001F0E9FA1B210120E0
:1039100001F0E5FA0698401CC0B201460290022070
:1039200001F0DDFA3C490698085C0A2190FBF1F0B1
:10393000C0B201460290042001F0D1FA364906983F
:10394000085C0A2190FBF1F201FB12000A30C0B2C0
:1039500001460290052001F0C2FA2E490698085C43
:103960000A2190FBF1F0C0B201460290062001F05E
:10397000B6FA28490698085C0A2190FBF1F201FB8F
:103980001200C0B201460290072001F0A8FA1FE021
:103990001421002001F0A3FA1421012001F09FFA64
:1039A0001421022001F09BFA1421032001F097FA60
:1039B0001421042001F093FA1421052001F08FFA5C
:1039C0001421062001F08BFA1421072001F087FA58
:1039D0000C98032801DD00200C9001210C48FCF715
:1039E0007AFE70B901200D900020089000E04BE0B5
:1039F00001F0A8F800BF01210548FCF76CFE002883
:103A0000F9D002210248FCF766FEC8B901200BE09C
:103A10000008014042000020380000203200002051
:103A200033000020340000200D900020089001F0A9
:103A300089F800BF0221FE48FCF74DFE0028F9D0AE
:103A40000421FB48FCF747FE60B901200D900020DF
:103A5000089001F077F800BF0421F548FCF73BFE21
:103A60000028F9D00821F248FCF735FE60B90120A2
:103A70000D900020089001F065F800BF0821EC4887
:103A8000FCF729FE0028F9D00D9803287EDA0820DB
:103A9000079089E09DF80E00642190FBF1F201FB94
:103AA00012000A2190FBF1F09DF80D10642291FBA9
:103AB000F2F302FB131101EB810100EB4101DD4A3E
:103AC0000798125CDC4B185C00EB800002EB4000B6
:103AD000814221DC19460798085CE8B1079808285C
:103AE0000BD10A98012808D001200A9001F0A5F80E
:103AF000002001F0BEFA01200D90079809280BD193
:103B00000998012808D00120099001F096F80120B9
:103B100001F0B8FA01200D909DF80E00642190FB91
:103B2000F1F201FB12000A2190FBF1F09DF80D105B
:103B3000642291FBF2F302FB131101EB810100EB14
:103B40004101BC4A0798125CBB4B185C00EB80003B
:103B500002EB4000814223DD19460798085CF8B16A
:103B6000079808280BD10A98022808D002200A904A
:103B700001F063F8012001F07CFA01200D90079814
:103B800009280DD1099802280AD000E010E002208F
:103B9000099001F052F8002001F074FA01200D9014
:103BA0000798401CC0B2079007980A28FFF672AF2A
:103BB0000D98D2287ED10C98401C80B20C9019210F
:103BC000002001F08CF91621012001F088F90598F8
:103BD0000838C0B201460290022001F080F90C982A
:103BE000B0F52F7F3CDD0598401E9349085C80B9F5
:103BF0001C21042001F073F91D21052001F06FF94B
:103C00001D21062001F06BF91421072001F067F94E
:103C100040E00598401E8849085C642190FBF1F261
:103C200001FB12000A2190FBF1F0C0B201460290A4
:103C3000042001F054F90598401E7F49085C0A21D0
:103C400090FBF1F201FB12000A30C0B20146029073
:103C5000052001F044F91621072001F040F919E090
:103C60000598401E7449085C60B91421042001F0D5
:103C700036F91421052001F032F91421062001F053
:103C80002EF907E01421042001F029F91421052060
:103C900001F025F90598401E6749085C80B1059838
:103CA000401E6449085C0A2190FBF1F201FB1200FE
:103CB000C0B200E02CE101460290062001F00FF9AD
:103CC0000C98B0F5AF6F01DD00200C900121584831
:103CD000FCF701FDE8BB06E00698401CC0B2069068
:103CE0000A2000F099FA01215148FCF7F4FC10B9C0
:103CF00006986428F0DB0698642842DB3AE040F23C
:103D0000BD200C900598401E4B49085C401CC1B278
:103D10000598401E484A11540598401E1146085CFB
:103D20003C2803DD00210598401E11540598401ED3
:103D30004149085C0A2190FBF1F0C0B201460290B3
:103D4000042001F0CCF80598401E3B49085C0A218C
:103D500000E034E090FBF1F201FB12000A30C0B247
:103D600001460290052001F0BAF8502000F054FA04
:103D700000F0E8FE01212E48FCF7ADFC0028BED083
:103D80001AE00798C0B940F2BD200C900598401E7B
:103D90002949085C401CC1B20598401E264A1154AE
:103DA0000598401E1146085C3C2803DD002105985B
:103DB000401E115400F0C6FE00200790069002211C
:103DC0001B48FCF788FCC8BB06E00698401CC0B244
:103DD00006900A2000F020FA02211548FCF77BFC2F
:103DE00010B906986428F0DB0698642848DB40E0A8
:103DF00040F2BD200C900598401E0F49085C20B988
:103E00003D210598401E0C4A11540598401E0A4950
:103E1000085C401EC1B20598401E074A115405981F
:103E2000401E1146085C0A2190FBF1F0C0B206E08A
:103E30000008014042000020380000203EE001461A
:103E40000290042001F04BF80598401EDD49085C03
:103E50000A2190FBF1F201FB12000A30C0B20146C8
:103E60000290052001F03BF8502000F0D5F900F059
:103E700069FE0221D448FCF72EFC0028B8D01AE0D5
:103E80000798C0B940F2BD200C900598401ECD495E
:103E9000085C20B93D210598401ECA4A1154059876
:103EA000401EC849085C401EC1B20598401EC54A64
:103EB000115400F047FE0020079006900421C248EC
:103EC000FCF709FC88B90598401EBE49085C08B19A
:103ED000D3200D9000F036FE00F008FA00BF042158
:103EE000B948FCF7F8FB0028F9D00821B648FCF7E0
:103EF000F2FB68B901200D90049000F0F7F900F092
:103F00009CFE00BF0821B048FCF7E5FB0028F9D073
:103F10000D98D32870D10C98401C80B20C901921B8
:103F2000002000F0DCFF1621012000F0D8FF0598EA
:103F30000838C0B201460290022000F0D0FF1621DE
:103F4000072000F0CCFF0598401E9E49085C6421C4
:103F500090FBF1F201FB12000A2190FBF1F0C0B2DC
:103F600001460290042000F0BAFF0598401E9549D2
:103F7000085C0A2190FBF1F201FB12000A30C0B28A
:103F800001460290052000F0AAFF0C98B0F52F7FA3
:103F90000FDD0598401E8D49085C0A2190FBF1F267
:103FA00001FB1200C0B201460290062000F097FF0C
:103FB00003E01421062000F092FF0C98B0F5AF6FDB
:103FC00001DD00200C9001217F48FCF784FBE0BB61
:103FD00006E00698401CC0B206900A2000F01CF9CA
:103FE00001217948FCF777FB10B906986428F0DBCB
:103FF0000698642835DB2DE0E1E040F2BD200C900E
:104000000598401E7149085C401CC1B20598401ECD
:104010006E4A11540598401E1146085C092803DDBC
:1040200000210598401E11540598401E6749085C00
:104030000A2190FBF1F201FB1200C0B2014602908E
:10404000062000F04CFF502000E028E000F0E4F8EB
:1040500000F078FD01215C48FCF73DFB0028CCD046
:104060001AE00798C0B940F2BD200C900598401E98
:104070005649085C401CC1B20598401E534A115471
:104080000598401E1146085C092803DD00210598AB
:10409000401E115400F056FD0020079006900221AA
:1040A0004948FCF718FBE8BB06E00698401CC0B284
:1040B00006900A2000F0B0F802214348FCF70BFB01
:1040C00010B906986428F0DB0698642834DB2CE0ED
:1040D00040F2BD200C900598401E3C49085C20B978
:1040E0000A210598401E394A11540598401E374947
:1040F000085C401EC1B20598401E344A1154059810
:10410000401E1146085C0A2190FBF1F201FB1200EF
:10411000C0B201460290062000F0E1FE502000F0FF
:104120007BF800E026E000F00DFD02212648FCF7B8
:10413000D2FA0028CCD01AE00798C0B940F2BD20CE
:104140000C900598401E2149085C20B90A21059869
:10415000401E1E4A11540598401E1C49085C401E12
:10416000C1B20598401E194A115400F0EBFC002022
:104170000790069004211448FCF7ADFA60B9D220EC
:104180000D9000F0B3F800F0DDFC00BF04210E48F4
:10419000FCF7A1FA0028F9D008210B48FCF79BFA9C
:1041A00068B901200D90049000F0A0F800F045FDE2
:1041B00000BF08210448FCF78EFA0028F9D0FDF76B
:1041C000F8BD000038000020000801404200002037
:1041D000704700BFFEE700BFFEE700BFFEE700BF7D
:1041E000FEE7704770477047704700EBC001C90099
:1041F0004FF0E0225161002191610521116100BF62
:104200004FF0E021096901F480310029F8D0042140
:104210004FF0E0221161704700B5034603E04FF410
:104220007A70FFF7E2FF181EA3F101018BB2F6D1FD
:1042300000BD10B5044603E04FF47A70FFF7ECFFC1
:10424000201EA4F101018CB2F6D110BD10B54FF4BF
:10425000A060FCF7DFF810BD10B5FCF7F7FA4FF4DB
:104260008030FCF713FBFCF750FB0446012C24D1F3
:104270004FF4E0110004FCF771FB0020FCF78BFB0E
:10428000A002FCF791FB0020FCF797FB0220FDF752
:104290001FF81020FDF730F80120FCF76BFB00BF82
:1042A0003920FCF716FB0028FAD00220FCF765FB4A
:1042B00000BFFCF76BFB0828FBD110BD70B50446AE
:1042C0000D46FDF724F83520FDF7BCFA1848FDF738
:1042D00063F829462046FDF762F93520FDF7B2FA6A
:1042E000FDF721F870BD01460888704770B5FDF7ED
:1042F0000EF83520FDF7A6FA0D48FDF74DF800241D
:1043000011E00C48015D0C48005D01EB002085B216
:10431000074901EB44002946FDF741F93520FDF737
:1043200091FA601CC4B20A2CEBDBFCF7FCFF70BDF9
:1043300000F001084200002038000020014600BFC4
:10434000704700BF604A128802F04002002AF9D08C
:10435000C2B25D4B1B1D1A8070470FB410B5B4B0CC
:10436000002437A80090C92101A8009B369A00F0CC
:1043700099FE0EE02046621CD4B201AA115C52489C
:10438000FCF772FD00BF40214F48FCF7DBFD002821
:10439000F9D0C82C04DA01A800F098FFA042E9D8AF
:1043A0000020009034B010BC5DF814FB10B586B04E
:1043B0000446012144F20400FCF7B6FB4FF4007000
:1043C000ADF8140003208DF8160018208DF81700A2
:1043D00005A93E48FCF7ECF84FF48060ADF81400F6
:1043E00004208DF8170005A93848FCF7E1F82520CE
:1043F0008DF8000003208DF801008DF802000120E7
:104400008DF803006846FCF70AF801940020ADF827
:104410000800ADF80A00ADF80C00ADF810000C2053
:10442000ADF80E0001A92848FCF725FC012240F256
:1044300025512548FCF7B7FC01212348FCF7A7FCD0
:1044400006B010BD10B540F225511F48FCF790FD95
:10445000002838D01C48FCF70BFDC4B221461CA034
:1044600000F03AFE1B48008800F4004058BB194891
:10447000008800F4804060B10A2C03D00020154968
:10448000088020E01348008840F40040114908806B
:1044900019E00D2C06D10F48008840F480400D49EA
:1044A000088010E00B480088C0F30D000A490C5446
:1044B00008480088401C0749088008460088C7282B
:1044C00001DD0020088010BD0038014000080140D7
:1044D000256300002C0000204C00002010B50121B5
:1044E0004FF0C050FCF72DFB0120FCF7F2FDFCF76C
:1044F00083FD0120FCF785FA00BF4120FCF7E9F9B4
:104500000028FAD04FF48070FCF797FA0120FCF7EE
:104510009AFAFCF79EFEFCF793FE47F6FF70FCF755
:1045200069FEFCF78DFE10BD10B50420FCF799FD67
:104530004AF2A551884207D0FFF7D0FF4AF2A551B1
:104540000420FCF782FD0DE07B20FCF7C2F910B9D6
:104550007A20FCF7BEF9FCF725FB0120FCF773FA83
:10456000FCF777FE10BD10B50120FCF797FE012087
:10457000FCF7A4FEFCF764FE10BD10B50220FCF7AA
:104580008DFE0220FCF79AFEFCF75AFE10BD014694
:10459000CA1701EB92729210A1EB820292B96420C9
:1045A00091FBF0F200FB121050B94FF4C87091FB70
:1045B000F0F200FB121008B9012070470020FCE760
:1045C0000120FAE70020F8E72DE9F05F06460F46E4
:1045D00090469946DDE90AAB0024B6F5FA6F03DB95
:1045E00040F63300864202DD0120BDE8F09F40F234
:1045F000B2750AE02846FFF7CAFF10B17A480444B2
:1046000001E07A480444681C85B2B542F2DB781EAA
:10461000C7B2002510E07648405D40F2A321484330
:1046200004EBC0143046FFF7B2FF18B1012D01D1E1
:1046300070480444681C85B2BD42ECDBA8F101005F
:1046400040F2A321484304EBC014C9EB4910C0EB6E
:10465000092004EB0014CAEB0A1004EB80045C444C
:10466000FFF73CFF4AF2A5510420FCF7EEFC204680
:10467000FCF7B3FDFCF7E4FD0020B6E7F0B5034618
:104680000C461546642093FBF0F0C6B2642093FB01
:10469000F0F700FB1730C1B2132E02DD01F1640008
:1046A000C1B20846CF1701EB977701EBA707BAB263
:1046B000072092FBF0F700FB172082B25719601E0B
:1046C000DFF834C11CF80000384482B2CF1701EB88
:1046D0009777BF10A1EB87071FB9032C01DA501E93
:1046E00082B2072092FBF0F700FB1720C0B2F0BDAA
:1046F00070B5002600240025FCF766FD06463D48FF
:10470000B6FBF0F43D480088A0423DD03B490C8008
:1047100040F2B27510E02846FFF739FF40B1B4F51A
:10472000B77F02D3A4F5B77404E0681C85B206E035
:10473000A4F26D14681C85B2B4F5B67FEBD800BF47
:104740002F480580002516E02D480088FFF71FFF41
:1047500030B1012D04D11D2C01D31D3C09E00CE02A
:104760002348405DA04203D82148405D241A00E060
:1047700003E0681C85B21C2CE6D200BF681C2149EE
:104780000870601C204908701A48B6FBF0F100FB65
:1047900011644FF46160B4FBF0F01C4908704FF4F1
:1047A0006160B4FBF0F100FB11403C21B0FBF1F083
:1047B000174908704FF46160B4FBF0F100FB114041
:1047C0003C21B0FBF1F201FB1200124908700E48C7
:1047D00002780C4801780A480088FFF74FFF0E491D
:1047E0000870002070BD00000085E2018033E10107
:1047F000C067000880510100B4670008360000203F
:104800002E00002030000020310000203200002067
:1048100033000020340000203500002008B50121BD
:104820001C20FCF781F901214805FCF78AF9C0201A
:10483000ADF800001C208DF8030003208DF8020065
:104840006946B148FBF7B4FE08BD1FB5FFF7E6FFA8
:104850000020ADF804004BF6FF70ADF80600C02054
:10486000ADF808004FF48060ADF80A000001ADF823
:104870000C00A64800906946A548FDF720F80121E4
:10488000A348FDF79AF81FBD2DE9F04105460F46F4
:1048900014461E4601219E48FDF7B3F800BF9D490E
:1048A0009B48FDF78FF90028F9D000222946984847
:1048B000FDF7FDF800BF98499548FDF783F90028FA
:1048C000F9D039469248FDF7ECF800BF9249891CAF
:1048D0008F48FDF777F90028F8D00CE021788C4854
:1048E000FDF7DFF8641C00BF8B49891C8848FDF781
:1048F00069F90028F8D0301EA6F101018EB2EDD181
:1049000001218348FDF789F8BDE8F08170B50446C0
:104910000E46154601217E48FDF773F800BF7D491C
:104920007B48FDF74FF90028F9D00022214678484E
:10493000FDF7BDF800BF78497548FDF743F9002839
:10494000F9D031467248FDF7ACF800BF7249891CB6
:104950006F48FDF737F90028F8D029466C48FDF775
:10496000A0F800BF6C49891C6948FDF72BF90028A5
:10497000F8D001216648FDF750F870BD2DE9F041EF
:1049800006460F4615461C4600BF4FF400316048EE
:10499000FDF73AF90028F8D101215D48FDF731F81B
:1049A00000BF5C495A48FDF70DF90028F9D00022F4
:1049B00031465748FDF77BF800BF57495448FDF78B
:1049C00001F90028F9D001215148FCF7F6FF3946DA
:1049D0004F48FDF766F800BF4F49891C4C48FDF76A
:1049E000F1F80028F8D001214948FDF70AF800BF86
:1049F00048494748FDF7E6F80028F9D0012231463A
:104A00004348FDF754F800BF4249491C4048FDF7B0
:104A1000D9F80028F8D016E0012C07D100213C4835
:104A2000FDF707F801213A48FCF7F7FF39493F3114
:104A30003748FDF7C7F830B13548FDF734F828702E
:104A40006D1C601E84B2002CE6D101213048FCF7B9
:104A5000F0FFBDE8F08170B504460D4600BF4FF48D
:104A600000312B48FDF7D0F80028F8D10121284863
:104A7000FCF7C7FF00BF27492548FDF7A3F800282A
:104A8000F9D0002221462248FDF711F800BF224943
:104A90001F48FDF797F80028F9D001211C48FCF7C2
:104AA0008CFF29461A48FCF7FCFF00BF1A49891CF5
:104AB0001748FDF787F80028F8D001211448FCF7C3
:104AC000A0FF00BF13491248FDF77CF80028F9D079
:104AD000012221460E48FCF7EAFF00BF0D49491CA0
:104AE0000B48FDF76FF80028F8D000210848FCF7C4
:104AF000A0FF01210648FCF790FF0548FCF7D3FF13
:104B00000646304670BD0000000C0140400D030019
:104B100000540040010003008200070008B5202077
:104B2000ADF8000010208DF8030003208DF802007E
:104B300069468348FBF73CFD012220218048FBF7B2
:104B4000E8FD08BD10B5002413E0002220217C48B8
:104B5000FBF7DFFD4FF4FA70FFF747FB012220213E
:104B60007748FBF7D6FD4FF4FA70FFF73EFB601C69
:104B700084B2322CE9DB10BD10B5002413E0002212
:104B800020216F48FBF7C5FD4FF44870FFF72DFB60
:104B9000012220216A48FBF7BCFD4FF44870FFF763
:104BA00024FB601C84B2B4F5C87FE8DB10BD10B5EF
:104BB000002411E0002220216148FBF7AAFDC82053
:104BC000FFF713FB012220215D48FBF7A2FDC8205F
:104BD000FFF70BFB601C84B2962CEBDB002413E088
:104BE000002220215648FBF794FD4FF49670FFF702
:104BF000FCFA012220215248FBF78BFD4FF49670FE
:104C0000FFF7F3FA601C84B2642CE9DB002411E0A6
:104C1000002220214A48FBF77CFD6420FFF7E5FADB
:104C2000012220214648FBF774FD6420FFF7DDFADE
:104C3000601C84B2FA2CEBDB10BD10B5002411E02F
:104C4000002220213E48FBF764FDC820FFF7CDFA83
:104C5000012220213A48FBF75CFDC820FFF7C5FA86
:104C6000601C84B2B4F5E17FEADB002413E000228B
:104C700020213348FBF74DFD4FF4C870FFF7B5FA1C
:104C8000012220212E48FBF744FD4FF4C870FFF7A6
:104C9000ACFA601C84B2FA2CE9DB002411E000229B
:104CA00020212748FBF735FD6420FFF79EFA0122FB
:104CB00020212348FBF72DFD6420FFF796FA601CA6
:104CC00084B2B4F5E17FEADB10BD70B5002434E0B6
:104CD00000251FE0002220211948FBF71AFD600083
:104CE000184931F81000184991FBF0F63046FFF7EB
:104CF0007CFA012220211248FBF70BFD60001149CC
:104D000031F81000104991FBF0F63046FFF76DFACC
:104D1000681C85B260000B4931F81000012101EBDD
:104D20004401084A32F8111048434FF47A7190FB5D
:104D3000F1F0A842CEDC601C84B2272CC8DB70BD29
:104D4000000C0140CC67000820A1070008B50F2027
:104D5000ADF8000048208DF8030069460148FBF7D4
:104D600027FC08BD0008014010B501221103774857
:104D7000FBF7CFFC0122D1027448FBF7CAFC0120EB
:104D8000FFF733FA00224FF480517048FBF7C1FC63
:104D90000120FFF72AFA00224FF400616B48FBF76D
:104DA000B8FC0120FFF721FA10BD10B500224FF426
:104DB00080516648FBF7ADFC0122D1026348FBF746
:104DC000A8FC0120FFF711FA012211035F48FBF74D
:104DD000A0FC0120FFF709FA10BD70B50446254676
:104DE00000224FF480515948FBF793FC00224FF406
:104DF00000615648FBF78DFC002628E000224FF4A6
:104E000000615248FBF785FC0120FFF7EEF905F041
:104E1000010040B1012211034C48FBF77AFC01204C
:104E2000FFF7E3F908E000224FF480514748FBF711
:104E300070FC0120FFF7D9F90122D1024348FBF7AA
:104E400068FC0120FFF7D1F96D10701CC6B2082E66
:104E5000D4DB00224FF480513C48FBF75AFC00227F
:104E60004FF400613948FBF754FC70BD08B50121CF
:104E70001C20FBF759FE4FF4C050ADF80000102085
:104E80008DF8030003208DF8020069462F48FBF7D8
:104E90008FFB012211032D48FBF73BFC0122D102BD
:104EA0002A48FBF736FCFFF75FFF4420FFF795FF2A
:104EB000FFF77BFFFFF758FF8C20FFF78EFFFFF710
:104EC00074FF08BD10B50446FFF74EFFC820FFF77A
:104ED00084FF2046FFF781FFFFF767FF10BD30B565
:104EE00089B004460D46202219A101A800F00DFA50
:104EF000FFF73AFF04F1C001C8B2FFF76EFF01A946
:104F0000485DFFF76AFFFFF750FF09B030BD70B58D
:104F100088B004460D4620220DA1684600F0F5F940
:104F2000FFF722FF04F1C001C8B2FFF756FF0026C9
:104F300005E01DF80500FFF750FF701CC6B2102EEB
:104F4000F7DBFFF732FF08B070BD0000000801403A
:104F50003F065B4F666D7D077F6FBF86DBCFE6ED5B
:104F6000FD87FFEF0040586D797877385C7100005D
:104F7000F8B506460024002502236A4600219E203B
:104F8000FFF7FCFC9DF800400020307004F080002A
:104F900028B101203070E043C4B2601CC4B204F0F8
:104FA000010008B1681CC5B204F0020008B1A81CD9
:104FB000C5B204F0040008B1281DC5B204F0080011
:104FC00010B105F10800C5B204F0100010B105F1F0
:104FD0001000C5B204F0200010B105F12000C5B2E8
:104FE00004F0400010B105F14000C5B2761C3570E8
:104FF00000259DF8014004F0200010B105F10C00DF
:10500000C5B204F0400010B105F11900C5B204F0BA
:10501000800010B105F13200C5B2761C3570F8BDC4
:1050200010B5012211469E20FFF770FC10BD000054
:1050300008B501217C20FBF777FD01210846FBF72D
:1050400073FD4FF4C040ADF8000010208DF8030050
:1050500003208DF8020069460F48FBF7A9FA0121E9
:105060000E48FBF776FB4FF4C0410B48FBF74FFBB4
:1050700008BD10B5044622464FF480410648FBF7B0
:1050800048FB10BD10B5044622464FF400510248BB
:10509000FBF73FFB10BD000000080140000430009A
:1050A000704700007CB51D4616460C00009001D0EC
:1050B0002044401E074B7B442A46694601903046F7
:1050C00000F0E7F905461CB10020694600F0F4F94C
:1050D00028467CBD090400000FB4044910B503AA9A
:1050E000029800F00DFA10BC5DF814FB28000020B7
:1050F00070B50C460546012A05D02878800600D5F3
:10510000EA69002302E0012305E05B1C934202D21E
:10511000E05C0028F9D1A869E618C01AA861286ADD
:1051200018442862284600F026F904E0D5E9012158
:1051300014F8010B9047B442F8D3284600F031F937
:1051400070BD00002DE9F05F894604464FF0000A6B
:10515000DFF874B1FB44C0F820A02046E16888471E
:10516000002874D0252806D0D4E901219047206A70
:10517000401C2062F1E700265F462046E168884730
:105180002028054607DB312D05D2781910F8200CB0
:1051900008B10643F1E7B00701D526F00406C4F8CC
:1051A0001CA00027C4F818A02A2D09D0284601F019
:1051B000CBFA38B304EB8708303DC8F8185019E033
:1051C00059F8041B204604EB87029161E168884787
:1051D000012F054618D1E069002820DA26F02006C4
:1051E0001DE0D8F8180000EB800005EB40003038D7
:1051F000C8F818002046E1688847054601F0A4FA7F
:105200000028EED1012F0AD02E2D08D12046E168CA
:1052100088477F1C0546022F46F02006C4DBA069A4
:10522000002803DA404246F00106A061F00701D0F1
:1052300026F010066C2D0BD0682D09D04C2D39D0DE
:105240006A2D35D0742D35D07A2D33D016E038E064
:10525000E1682F4620468847B842054609D16C2FA1
:1052600026D04FF48060E168064320468847054613
:1052700004E06C2F1AD04FF4807006430DB3A5F1F3
:105280004100192802D8203546F400664A462946CE
:10529000204626604E46FAF763FF80B101280BD006
:1052A000F61D26F0070000F1080956E74020E4E764
:1052B0008020D8E70020D6E706F104094DE728460C
:1052C00052E7206ABDE8F09F1017000010B5431C9C
:1052D00002E010F8011B71B18107FAD14FF00132E1
:1052E00002C88C1A8C4314EAC211F9D0C01A0A06FB
:1052F00003D0C01E10BDC01A10BD0A0401D0801E0C
:1053000010BD0902FCD0401E10BD10B5203AC0F0FF
:105310000B80B1E81850203AA0E81850B1E81850B6
:10532000A0E81850BFF4F5AF5FEA027C24BFB1E8F3
:105330001850A0E8185044BF18C918C0BDE8104064
:105340005FEA827C24BF51F8043B40F8043B08BF6D
:105350007047D20728BF31F8023B48BF11F8012B34
:1053600028BF20F8023B48BF00F8012B7047704768
:1053700070477047704770B5044685690068C1067C
:1053800001D5302600E02026C00707D070BDD4E943
:10539000012130469047206A401C20626D1EF6D5E0
:1053A00070BD70B5044685690078C00707D170BD2F
:1053B000D4E9012120209047206A401C20626D1E04
:1053C000F6D570BD09684A0501D540B27047C905D8
:1053D000FCD500B2704709684A0501D5C0B27047D4
:1053E000C905FCD580B270472DE9F041064600247E
:1053F00010687529314616A510D0FFF7E3FF002885
:1054000002DA404213A507E031688A0701D512A5E8
:1054100002E0490704D511A5012401E0FFF7DBFFF5
:1054200000210A2206F1240709E0B0FBF2FCB0FBE0
:10543000F2F302FB1C00303078541846491C002857
:10544000F3D123462A463046BDE8F04100F0CDB9FD
:10545000000000002D0000002B00000020000000D4
:1054600011680268006A530501D508700AE0D30587
:1054700001D5088006E0130603D5C217C1E9000272
:1054800000E008600120704701694A1C0261087849
:10549000704700B58FB0CDE9013100210591054974
:1054A0007944CDE9031011466846FFF74BFE0FB073
:1054B00000BD0000E5FFFFFF0A6802F8010B0A606B
:1054C0007047D1E900239A4202D2531C0B6010703E
:1054D000704710B5436913B1AFF3008001E0FFF7E7
:1054E00007FE012010BD127800F124010A7000228D
:1054F0004A700122EDE711684FF0FF32E9E7000042
:10550000074B70B50D467B44FFF7C3FF04462846A2
:1055100000F0E9FB10B14FF0FF3070BD204670BDC8
:1055200039EEFFFF2DE9FF5F15468A460446DFF896
:10553000AC80F8440027D8E900103E46CDE90010C1
:1055400010E03AF816106A4602A800F0D0FB411CA1
:1055500007D02178890603D5E269391891420DD820
:105560000744761C2078800602D5E069B84205DD44
:10557000AE42E6DB3AF816000028E2D1A069C01B73
:10558000A0612046FFF7F7FED8E90010CDE9001032
:10559000002017E03AF818106A4602A800F0A7FBAE
:1055A000B0F1FF3F81460BD000250DF1080B05E05F
:1055B000D4E901211BF8050090476D1C4D45F7D338
:1055C00008F10100B0428046E4DB206A38442062E2
:1055D0002046FFF7E6FEBDE8FF9F000046130000EF
:1055E0002DE9F0418046D21D22F007020025D2E9C4
:1055F0000002F52915A614D0011E72F1000106DA89
:105600000023D0EB030063EB020211A608E0D8F8F8
:1056100000108B0701D50FA602E0490701D50EA6A1
:1056200001251146002408F1240704E000F098F851
:1056300030323A55641C50EA0102F7D12B4632460B
:1056400021464046BDE8F04100F0CFB80000000020
:105650002D0000002B0000002000000030B40021CD
:1056600000F1240408E002F00705D208303542EAD0
:105670004372DB086554491C52EA0305F3D1046800
:10568000002310A2250707D5A40600D421B1C469C0
:1056900001230DA2641EC46130BC00F0A6B810B591
:1056A000044621461068FFF796FE02462046BDE8F4
:1056B00010400023D2E7D21D22F00701D1E90023D8
:1056C000CCE700000000000030000000F0B40D4600
:1056D0000188090502D5214C7C4402E01F4C7C4422
:1056E0000E34002100F1240608E002F00F07120931
:1056F000E75D42EA03721B097754491C52EA03072B
:10570000F3D102780023120704D5702D06D009B119
:10571000022311342246F0BC00F067B80123103494
:10572000F8E770B504460D4621461068FFF753FEB2
:10573000024629462046BDE870400023C6E7D21D38
:1057400022F00703D3E90023C0E70368126843F09F
:10575000200303600823C3610023B7E7A8110000FA
:1057600030B5B0F10A024FEA900E71F100034EEA33
:10577000817EB0EB0E0061EB91014FEA101E4EEA04
:10578000017E10EB0E0041EB11114FEA102E4EEA94
:10579000016E10EB0E0041EB11214FEA104E4EEA64
:1057A000014E10EB0E0041EB1141401841F1000198
:1057B0004FEAD00040EA41704FEAD10110EB80057A
:1057C0004FEA810444EA907444EB01046D1944EB00
:1057D0000404521BA3414FF0000348BF0A3200D516
:1057E00030BD401C41F1000130BD2DE9F0470D46B0
:1057F00099469246044600F124080168880604D5BB
:10580000E06921F01001216000E00120A84201DDE3
:10581000471B00E00027A1697A1902EB0900081A6A
:10582000A0612078C00602D42046FFF7A4FD002620
:1058300008E0D4E901211AF806009047206A401CCC
:10584000761C20624E45F4DB2078C0060AD520463F
:10585000FFF791FD06E0D4E9012130209047206A4E
:10586000401C2062381EA7F10107F4DC07E0D4E9F0
:10587000012118F805009047206A401C2062281E6C
:10588000A5F10105F3DC2046FFF78BFD207800062B
:1058900002D50220BDE8F0870120FBE770472DE923
:1058A000FF4F0C461E464FF0FF378BB0D2E9000188
:1058B000DDF860800A908A46C1F30A5505B93D4675
:1058C000002108464FF00000BAF1000F00F440003C
:1058D00005DA00EB80004FF4400101EA50004FEA86
:1058E0009059B9F1010F00DDB9460A9850EA4A0013
:1058F0000ED044F61050A5F2FF3545432F14B8F1F1
:10590000000F1ED07542291E1EDDC9F100021CE0E9
:10591000B8F1010F4FF0000001D0302103E0F24355
:1059200005E02154401CB042FBDB30460022002140
:1059300021540B99C1F80880C1E900200FB0BDE8DF
:10594000F08FBD1B6D1CDEE74A4600DA694206A8EF
:1059500000F05EFA06AB93E8070003AB83E80700AC
:1059600050460A9900F014FB8DE80700A0F500509E
:105970001F3800900398002D0ADD42F21F014A46AD
:105980000844002303A90390684600F07DFD09E068
:10599000A0F500504A461F38002303A9039068462B
:1059A00000F087FD8DE807000004000C03D04FF0E5
:1059B000FF30410800E01046B8F1000F03D000228C
:1059C000009215461EE0751E05D4FFF7C9FE303261
:1059D00062556D1EF9D5B3460122084302D000225C
:1059E0007F1C04E02078302801D100227F1E002A8D
:1059F000099784D01DE0112D07DAFFF7B1FE303290
:105A000062556D1C50EA0102F5D1084302D000989E
:105A1000C8B10EE00021681E05E0235C625C63549F
:105A20002254401E491C8142F7DBAB46A81B401E96
:105A30000990002004F80B000B98099AC0F8088020
:105A4000C0E9002B7AE711264FF0000857E72DE94F
:105A5000F04F88460446D21D22F0070191B0D1E9EB
:105A60000001CDE90A0100F05BFE02460B98C00F71
:105A700001D02D2007E02068810701D52B2002E00E
:105A8000202101EAC000032A099001D0072A05DB82
:105A900003464146204600F07BF90BE12078800662
:105AA00001D5E06900E00620B8F1650F814606D017
:105AB000B8F1660F18D0B8F1670F70D131E000204F
:105AC000B9F1110F009001DB112301E009F101038D
:105AD0000AAA01A90CA8FFF7E2FEDDE90C70002676
